{
  "address": "0x2E9b21d350702C60F3574b7Ca54befd62cB40304",
  "abi": [
    {
      "inputs": [],
      "name": "getNbOfNFTRecived",
      "outputs": [
        {
          "internalType": "uint8",
          "name": "",
          "type": "uint8"
        }
      ],
      "stateMutability": "view",
      "type": "function"
    },
    {
      "inputs": [
        {
          "internalType": "address",
          "name": "",
          "type": "address"
        },
        {
          "internalType": "address",
          "name": "",
          "type": "address"
        },
        {
          "internalType": "uint256",
          "name": "",
          "type": "uint256"
        },
        {
          "internalType": "bytes",
          "name": "",
          "type": "bytes"
        }
      ],
      "name": "onERC721Received",
      "outputs": [
        {
          "internalType": "bytes4",
          "name": "",
          "type": "bytes4"
        }
      ],
      "stateMutability": "nonpayable",
      "type": "function"
    }
  ],
  "transactionHash": "0x79678f429fcf40f780bb228aa08d5ad854aaa2de784b9447cf979ea8bba7e019",
  "args": [],
  "solcInputHash": "e2b03226b54e220083ada485fc8f616f",
  "bytecode": "0x608060405234801561001057600080fd5b50610606806100206000396000f3fe608060405234801561001057600080fd5b50600436106100365760003560e01c8063150b7a021461003b578063f52b94691461006b575b600080fd5b61005560048036038101906100509190610278565b610089565b604051610062919061034a565b60405180910390f35b61007361010e565b6040516100809190610387565b60405180910390f35b60006100c96040518060400160405280600b81526020017f6572633732312072656375000000000000000000000000000000000000000000815250610124565b600160008054906101000a900460ff166100e39190610414565b6000806101000a81548160ff021916908360ff16021790555063150b7a0260e01b9050949350505050565b60008060009054906101000a900460ff16905090565b6101ba816040516024016101389190610365565b6040516020818303038152906040527f41304fac000000000000000000000000000000000000000000000000000000007bffffffffffffffffffffffffffffffffffffffffffffffffffffffff19166020820180517bffffffffffffffffffffffffffffffffffffffffffffffffffffffff83818316178352505050506101bd565b50565b60008151905060006a636f6e736f6c652e6c6f679050602083016000808483855afa5050505050565b60006101f96101f4846103c7565b6103a2565b90508281526020810184848401111561021157600080fd5b61021c8482856104c0565b509392505050565b600081359050610233816105a2565b92915050565b600082601f83011261024a57600080fd5b813561025a8482602086016101e6565b91505092915050565b600081359050610272816105b9565b92915050565b6000806000806080858703121561028e57600080fd5b600061029c87828801610224565b94505060206102ad87828801610224565b93505060406102be87828801610263565b925050606085013567ffffffffffffffff8111156102db57600080fd5b6102e787828801610239565b91505092959194509250565b6102fc8161045d565b82525050565b600061030d826103f8565b6103178185610403565b93506103278185602086016104cf565b61033081610591565b840191505092915050565b610344816104b3565b82525050565b600060208201905061035f60008301846102f3565b92915050565b6000602082019050818103600083015261037f8184610302565b905092915050565b600060208201905061039c600083018461033b565b92915050565b60006103ac6103bd565b90506103b88282610502565b919050565b6000604051905090565b600067ffffffffffffffff8211156103e2576103e1610562565b5b6103eb82610591565b9050602081019050919050565b600081519050919050565b600082825260208201905092915050565b600061041f826104b3565b915061042a836104b3565b92508260ff038211156104405761043f610533565b5b828201905092915050565b600061045682610489565b9050919050565b60007fffffffff0000000000000000000000000000000000000000000000000000000082169050919050565b600073ffffffffffffffffffffffffffffffffffffffff82169050919050565b6000819050919050565b600060ff82169050919050565b82818337600083830152505050565b60005b838110156104ed5780820151818401526020810190506104d2565b838111156104fc576000848401525b50505050565b61050b82610591565b810181811067ffffffffffffffff8211171561052a57610529610562565b5b80604052505050565b7f4e487b7100000000000000000000000000000000000000000000000000000000600052601160045260246000fd5b7f4e487b7100000000000000000000000000000000000000000000000000000000600052604160045260246000fd5b6000601f19601f8301169050919050565b6105ab8161044b565b81146105b657600080fd5b50565b6105c2816104a9565b81146105cd57600080fd5b5056fea2646970667358221220f06516502b2804e8f939481c9d30de6f5551791288c7b635ca7218360087a25364736f6c63430008030033",
  "devdoc": {
    "kind": "dev",
    "methods": {},
    "version": 1
  },
  "userdoc": {
    "kind": "user",
    "methods": {},
    "version": 1
  },
  "storageLayout": {
    "storage": [
      {
        "astId": 74,
        "contract": "contracts/NFTReceiver.sol:NFTReceiver",
        "label": "nbOfNFTReceived",
        "offset": 0,
        "slot": "0",
        "type": "t_uint8"
      }
    ],
    "types": {
      "t_uint8": {
        "encoding": "inplace",
        "label": "uint8",
        "numberOfBytes": "1"
      }
    }
  }
}