{
  "address": "0x04BBa63cab96f1f7e9e41d5f1d6438e3b9D5A50f",
  "abi": [
    {
      "inputs": [],
      "name": "getNbOfNFTRecived",
      "outputs": [
        {
          "internalType": "uint8",
          "name": "",
          "type": "uint8"
        }
      ],
      "stateMutability": "view",
      "type": "function"
    },
    {
      "inputs": [
        {
          "internalType": "address",
          "name": "",
          "type": "address"
        },
        {
          "internalType": "address",
          "name": "",
          "type": "address"
        },
        {
          "internalType": "uint256",
          "name": "",
          "type": "uint256"
        },
        {
          "internalType": "bytes",
          "name": "",
          "type": "bytes"
        }
      ],
      "name": "onERC721Received",
      "outputs": [
        {
          "internalType": "bytes4",
          "name": "",
          "type": "bytes4"
        }
      ],
      "stateMutability": "nonpayable",
      "type": "function"
    }
  ],
  "transactionHash": "0xee2e3268076049098e5b2266e005c20102a5d552397841a36647b753af0e8415",
  "args": [],
  "solcInputHash": "2578703b95dbcb28c7acc613ef1a61b3",
  "bytecode": "0x608060405234801561001057600080fd5b5061045c806100206000396000f3fe608060405234801561001057600080fd5b50600436106100365760003560e01c8063150b7a021461003b578063f52b94691461006b575b600080fd5b61005560048036038101906100509190610178565b610089565b6040516100629190610211565b60405180910390f35b6100736100d0565b604051610080919061022c565b60405180910390f35b6000600160008054906101000a900460ff166100a5919061029d565b6000806101000a81548160ff021916908360ff16021790555063150b7a0260e01b9050949350505050565b60008060009054906101000a900460ff16905090565b60006100f96100f48461026c565b610247565b90508281526020810184848401111561011157600080fd5b61011c848285610349565b509392505050565b600081359050610133816103f8565b92915050565b600082601f83011261014a57600080fd5b813561015a8482602086016100e6565b91505092915050565b6000813590506101728161040f565b92915050565b6000806000806080858703121561018e57600080fd5b600061019c87828801610124565b94505060206101ad87828801610124565b93505060406101be87828801610163565b925050606085013567ffffffffffffffff8111156101db57600080fd5b6101e787828801610139565b91505092959194509250565b6101fc816102e6565b82525050565b61020b8161033c565b82525050565b600060208201905061022660008301846101f3565b92915050565b60006020820190506102416000830184610202565b92915050565b6000610251610262565b905061025d8282610358565b919050565b6000604051905090565b600067ffffffffffffffff821115610287576102866103b8565b5b610290826103e7565b9050602081019050919050565b60006102a88261033c565b91506102b38361033c565b92508260ff038211156102c9576102c8610389565b5b828201905092915050565b60006102df82610312565b9050919050565b60007fffffffff0000000000000000000000000000000000000000000000000000000082169050919050565b600073ffffffffffffffffffffffffffffffffffffffff82169050919050565b6000819050919050565b600060ff82169050919050565b82818337600083830152505050565b610361826103e7565b810181811067ffffffffffffffff821117156103805761037f6103b8565b5b80604052505050565b7f4e487b7100000000000000000000000000000000000000000000000000000000600052601160045260246000fd5b7f4e487b7100000000000000000000000000000000000000000000000000000000600052604160045260246000fd5b6000601f19601f8301169050919050565b610401816102d4565b811461040c57600080fd5b50565b61041881610332565b811461042357600080fd5b5056fea2646970667358221220a06ddc029c21db0c320a329fabe9bea6a45bf2e2f9cb5eaf5ad642bb55bb6a1564736f6c63430008030033",
  "devdoc": {
    "kind": "dev",
    "methods": {},
    "version": 1
  },
  "userdoc": {
    "kind": "user",
    "methods": {},
    "version": 1
  },
  "storageLayout": {
    "storage": [
      {
        "astId": 1627,
        "contract": "contracts/NFTReceiver.sol:NFTReceiver",
        "label": "nbOfNFTReceived",
        "offset": 0,
        "slot": "0",
        "type": "t_uint8"
      }
    ],
    "types": {
      "t_uint8": {
        "encoding": "inplace",
        "label": "uint8",
        "numberOfBytes": "1"
      }
    }
  }
}